:0400000089EF00F094
:060008004B8237EF09F006
:100018004B80D8CF44F0E8CF45F0E0CF46F0FACF98
:1000280047F0FBCF48F0D9CF49F0DACF4AF0A0A883
:1000380020EF00F022EF00F02DEF00F0A1A827EF4D
:1000480000F029EF00F02DEF00F026EC0FF079EF2B
:1000580000F0F2A632EF00F034EF00F03FEF00F0CE
:10006800F2A039EF00F03BEF00F03FEF00F024EC96
:100078000FF079EF00F09DAA44EF00F046EF00F092
:100088005CEF00F09EAA4BEF00F04DEF00F05CEF44
:1000980000F002D85AEF00F00500FA6E0001AB51EB
:1000A800FD6EAC51FE6EFF6AFA50120079EF00F057
:1000B8009DA861EF00F063EF00F079EF00F09EA8D3
:1000C80068EF00F06AEF00F079EF00F002D877EF00
:1000D80000F00500FA6E0001AD51FD6EAE51FE6EE6
:1000E800FF6AFA50120079EF00F04AC0DAFF49C0FF
:1000F800D9FF48C0FBFF47C0FAFF46C0E0FF45C034
:0E010800E8FF44C0D8FF4B90100012EF0EF03D
:10100000007C1D541D441D3A10C013701D081606A7
:101010001EFE1DF61DEE1DE61DDE1DD61D641DC443
:101020001853797374656D20537461727465640D1F
:101030000044617465203A20000090EC0EF0000935
:10104000D8B425EF08F027EF08F062EF08F035EF8D
:1010500008F003EC0FF07EEF08F0FFEC0EF07EEFEF
:1010600008F0F7EC0EF07EEF08F072C03EF073C0AF
:101070003FF002D846EF08F00500FA6E0001665115
:10108000FD6E6751FE6EFF6AFA501200366E376AC7
:101090003750000AD8B44FEF08F031EF08F036505F
:1010A000010AD8B431EF08F0030AD8B429EF08F0E8
:1010B000010AD8B42DEF08F0070AD8B431EF08F0D0
:1010C00031EF08F0000183917DC0D9FF7EC0DAFFC7
:1010D0007D4B7E2BDF5007EC0FF000017F07D8A07F
:1010E00080077F518011D8A478EF08F07AEF08F0DC
:1010F0007DEF08F0060E7EEF08F0030E1200010EE1
:101100001C24D96EDA6A000EDA22DF6AABA48BEFF8
:1011100008F08DEF08F0A1EF08F0010E1C24D96E45
:10112000DA6A000EDA22DF8202D8A1EF08F00500A9
:10113000FA6E0001A951FD6EAA51FE6EFF6AFA50C7
:101140001200ABA2A6EF08F0A8EF08F0BCEF08F081
:10115000010E1C24D96EDA6A000EDA22DF8402D86E
:10116000BCEF08F00500FA6E0001A751FD6EA85112
:10117000FE6EFF6AFA501200010E1C24D96EDA6A64
:10118000000EDA22DF50D8B4C8EF08F0CAEF08F03A
:10119000D9EF08F002D8D7EF08F00500FA6E000189
:1011A000A551FD6EA651FE6EFF6AFA501200DBEFEC
:1011B00008F0D9EC0DF0120070EC0EF0F28EF28C0B
:1011C000F28C210E0001936F100E946F000E966F3B
:1011D0000F0E956F95EC0CF0080E00019E6F070E38
:1011E0009F6FA20E7BEC0EF0080EE82EFED700F0EB
:1011F000080E00019E6F0A0E9F6FA20E7BEC0EF090
:10120000080EE82EFED700F0080E00019E6FA20E19
:1012100040EC0EF0226E080E00019E6FA60E40EC10
:101220000EF0216E2EEC0CF020EE8CF0050EEBCFC4
:10123000DBFFE806FCE28DEC09F09E0E34EC0EF0CC
:10124000206E000E00019B6F20C09CF0700E7FECA2
:101250000BF0620E0001A46F650EE82EFED7A42FDE
:10126000FCD700F000F012EF09F089EF00F0FACFA0
:101270003AF0FBCF3BF0D9CF3CF0DACF3DF0F3CFE3
:101280003EF0F4CF3FF0F6CF40F0F7CF41F0F8CF8B
:1012900042F0F5CF43F09DA650EF09F052EF09F070
:1012A00067EF09F09EA657EF09F059EF09F067EFD5
:1012B00009F002D865EF09F00500FA6E1750FD6ECF
:1012C0001850FE6EFF6AFA50120077EF09F0A0A6E0
:1012D0006CEF09F06EEF09F077EF09F0A1A673EF5C
:1012E00009F075EF09F077EF09F059EF09F043C005
:1012F000F5FF42C0F8FF41C0F7FF40C0F6FF3FC016
:10130000F4FF3EC0F3FF3DC0DAFF3CC0D9FF3BC055
:10131000FBFF3AC0FAFF4B92110016380F0B300F4B
:10132000236E16500F0B300F246E2D0E256E1538C0
:101330000F0B300F266E15500F0B300F276E2D0E32
:10134000286E14380F0B300F296E14500F0B300F0E
:101350002A6E2F0E2B6E11380F0B300F2C6E115082
:101360000F0B300F2D6E2D0E2E6E12380F0B300F0F
:101370002F6E12500F0B300F306E2D0E316E133852
:101380000F0B300F326E13500F0B300F336E0D0EEC
:10139000346E310E0001936F100E946F000E966F35
:1013A000080E956F95EC0CF0230E0001936F000E64
:1013B000946F000E966F120E956F95EC0CF0120064
:1013C0002CEC0FF07DC0D9FF7EC0DAFFDF6E00018C
:1013D0007D4B7E2B7F07D8A080077F518011D8B42A
:1013E000F4EF09F0F6EF09F0FBEF09F014EC0FF061
:1013F000050E32EF0AF0838706EF0AF0EBEC0EF0F1
:1014000032EF0AF0EFEC0EF032EF0AF06CC03EF073
:101410006DC03FF002D816EF0AF00500FA6E605179
:10142000FD6E6151FE6EFF6AFA501200356E366A2B
:101430003650000AD8B41FEF0AF002EF0AF0355018
:10144000010AD8B402EF0AF0030AD8B4FEEF09F09B
:10145000010AD8B4FEEF09F0070AD8B402EF0AF087
:1014600002EF0AF012000001946F010E0001956F67
:1014700083B53DEF0AF03FEF0AF082EF0AF094C027
:101480007CF08393838583910E0E816F010E7B6FB9
:10149000F40E7A6F8387640E606F1E0E616F000E0C
:1014A0006C6F000E6D6F640E626F1E0E636F000E28
:1014B0006E6F000E6F6F640E646F1E0E656F000E10
:1014C000706F000E716F640E666F1E0E676F000EF8
:1014D000726F000E736F600E686F1E0E696F000EE4
:1014E000746F000E756F220E926F1E0E936FE2ECFA
:1014F0000EF022EC0FF023EC0EF01AEC0FF0000EC1
:101500000001956F9551120000019C6F000E0001C3
:101510009D6F00019C5133EC0AF00009D8B493EFA1
:101520000AF095EF0AF089EF0AF05A0E0001976F62
:101530001B0E986F9D0E996F000E9A6F4CEC0EF07B
:101540009B0E0001926F000E936F000E956F010EBF
:10155000946FEEEC0DF0000E0001976F000E986F87
:10156000000E996F000E9A6F58EC0EF0E7EC0EF03B
:101570006AEC0DF0E806D8B4C0EF0AF0C2EF0AF04A
:10158000B8EF0AF000019D5112009D9AFE0E000175
:10159000926F100E936FCEEC0EF09D98240E00010A
:1015A000926F1A0E936FC9EC0EF0080EB86E900E83
:1015B000AB6E240EAC6E190EAF6E000EB06E700ED8
:1015C0000001926F1E0E936FD8EC0EF0160E000104
:1015D000926F1E0E936FD3EC0EF01C0E0001926FF3
:1015E0001E0E936FDDEC0EF0000E196E000E1F6ED6
:1015F000000E1E6E080E1D6E000E1C6E000E1B6E81
:10160000000E1A6E9D8A12000001838715EF0BF001
:10161000FBEC0EF041EF0BF02AEC0FF0030E41EF64
:101620000BF0F7EC0EF041EF0BF06CC03EF06DC02C
:101630003FF002D825EF0BF00500FA6E6051FD6E09
:101640006151FE6EFF6AFA501200356E366A3650EE
:10165000000AD8B42EEF0BF011EF0BF03550010A51
:10166000D8B411EF0BF0030AD8B408EF0BF0010A5D
:10167000D8B408EF0BF0070AD8B40CEF0BF011EF59
:101680000BF012000001966F000192519311D8B433
:101690004CEF0BF04EEF0BF068EF0BF09651020D94
:1016A000600EF324D96E000EF420DA6E92C0DEFFD5
:1016B00093C0DDFF9651020D6C0EF324D96E000E1F
:1016C000F420DA6E94C0DEFF95C0DDFF7EEF0BF0F4
:1016D0009651020D600EF324D96E000EF420DA6EDE
:1016E000640EDE6E1E0EDD6E9651020D6C0EF3243E
:1016F000D96E000EF420DA6EDE6ADD6A1200000197
:101700009D6F00019D5133EC0AF00009D8B48BEFB6
:101710000BF08DEF0BF081EF0BF0020E0001976FD5
:101720001B0E986F9C0E996F000E9A6F4CEC0EF08A
:101730009B0E0001926F000E936F000E956F010ECD
:10174000946FEEEC0DF0000E0001976F000E986F95
:10175000000E996F000E9A6F58EC0EF0E7EC0EF049
:101760006AEC0DF0E806D8B4B8EF0BF0BAEF0BF066
:10177000B0EF0BF01200396E35503610D8B4C3EF0D
:101780000BF0C5EF0BF0DFEF0BF03950020D600EE0
:10179000F324D96E000EF420DA6E35C0DEFF36C0B9
:1017A000DDFF3950020D6C0EF324D96E000EF420CB
:1017B000DA6E37C0DEFF38C0DDFFF5EF0BF03950D1
:1017C000020D600EF324D96E000EF420DA6E640E62
:1017D000DE6E1E0EDD6E3950020D6C0EF324D96ED6
:1017E000000EF420DA6EDE6ADD6A120028EC0FF0DB
:1017F000000183A1FEEF0BF000EF0CF00DEF0CF0F9
:1018000090EC0EF00009D8B408EF0CF00AEF0CF0E1
:101810000DEF0CF00F0E0001816F00018151020DE0
:10182000010EF324F66E100EF420F76EF86A000E27
:10183000F8220900F5CF38F00900F5CF39F002D8C9
:101840002BEF0CF00500FA6E3850FD6E3950FE6E2D
:10185000FF6AFA5012000001816F1200000E0001B1
:101860009B6FD00E84EC0AF0136E010E00019B6F8B
:10187000D00E84EC0AF0126E020E00019B6FD00EA7
:1018800084EC0AF0116E040E00019B6FD00E84EC04
:101890000AF0166E050E00019B6FD00E84EC0AF064
:1018A000156E060E00019B6FD00E84EC0AF0146ECC
:1018B00020EE11F000EE9EF0050EDBCFEBFFE80608
:1018C000FCE2120000018391020E826F70EF0CF0B7
:1018D000FBEC0EF094EF0CF0F7EC0EF094EF0CF044
:1018E00070C03EF071C03FF002D880EF0CF00500F0
:1018F000FA6E6451FD6E6551FE6EFF6AFA50120079
:10190000356E366A3650000AD8B489EF0CF06CEFA9
:101910000CF03550020AD8B468EF0CF0010AD8B4C4
:1019200068EF0CF06CEF0CF01200000E0001986FE5
:10193000000E976F000E986F000E976FB8EF0CF0C7
:1019400093C0F6FF94C0F7FF000EF86E0F0EF76419
:1019500003D00800F55005D0F6CFE9FFF7CFEAFF36
:10196000EF50C4EC0CF00001934B942B974B982B49
:101970009551975D96519859D8A0C1EF0CF0C3EFDF
:101980000CF0A0EF0CF012000001926F1D50D8B4C3
:10199000CCEF0CF0CEEF0CF0C6EF0CF09DB8D3EF0F
:1019A0000CF0D5EF0CF0D9EF0CF092C0ADFFEEEFDC
:1019B0000CF09D98090E1F24D96EDA6A000EDA2207
:1019C00092C0DFFF1F2A070E1F64E9EF0CF0EBEF58
:1019D0000CF0EDEF0CF0000E1F6E1D069D8812003E
:1019E0000001926F010E0001936F83B3FAEF0CF0C8
:1019F000FCEF0CF00FEF0DF08383000E936F92510C
:101A0000D8B405EF0DF007EF0DF00BEF0DF0010E60
:101A1000816F0DEF0DF0020E816F1CEC0FF00001D5
:101A200093511200080E1D6018EF0DF01AEF0DF023
:101A300030EF0DF0090E1E24D96EDA6A000EDA229C
:101A4000DF50AD6E1E2A070E1E6429EF0DF02BEF3E
:101A50000DF02DEF0DF0000E1E6E1D2A31EF0DF072
:101A60009D98120020EE02F03E50D9263F50DA2217
:101A7000DECF35F0DDCF36F03EC0D9FF3FC0DAFF14
:101A8000DECF37F0DDCF38F000EC0EF0000E3A6E0E
:101A9000000E3B6E000E3C6E000E3D6E64EC0EF0D0
:101AA000020E1200000E8D6E000E8C6E000E896EFE
:101AB000000E8A6E000E8B6E070E966E926893680B
:101AC000946895687E681F0E7F6E000E7C6EF18EA6
:101AD000F2861200010E0001926F83B372EF0DF0D7
:101AE00074EF0DF07EEF0DF083957C6922EC0FF022
:101AF0001EEC0FF020EC0FF082C092F0000192512A
:101B000012003EC035F03FC036F0000E386E010EB8
:101B1000376E00EC0EF0000E3A6E000E3B6E000EBB
:101B20003C6E000E3D6E64EC0EF0040E12003EC0E2
:101B300035F03FC036F0000E386E020E376E00EC06
:101B40000EF0000E3A6E000E3B6E000E3C6E000E64
:101B50003D6E64EC0EF0020E12003EC035F03FC048
:101B600036F0000E386E010E376E00EC0EF0000EEF
:101B70003A6E000E3B6E000E3C6E000E3D6E64EC45
:101B80000EF0020E12003EC035F03FC036F0000EDF
:101B9000386E020E376E00EC0EF0000E3A6E000E3C
:101BA0003B6E000E3C6E000E3D6E64EC0EF0040EBB
:101BB0001200840E1C24D96EDA6A000EDA22AECF2F
:101BC000DFFF1C2A070E1C64E8EF0DF0EAEF0DF0B2
:101BD000ECEF0DF0000E1C6E1A2A1200000183A714
:101BE000F4EF0DF0F6EF0DF0FFEF0DF092C07DF089
:101BF00093C07EF094C07FF095C080F08397120070
:101C0000000183A706EF0EF008EF0EF011EF0EF0C3
:101C100035C07DF036C07EF037C07FF038C080F030
:101C20008397120000EE60F0320EEE6AE806FDE1E6
:101C300000EE01F0340EEE6AE806FDE14B904B92A7
:101C40000001DCEF08F0C6BA28EF0EF02AEF0EF024
:101C500033EF0EF0800EC76E080EC66E000EC56E16
:101C6000030EC86EC68A120000019E6F000E0001AE
:101C70009B6F9E5184EC0AF000019F6F9F511200F0
:101C800000019F6F9EC09BF000019F5184EC0AF001
:101C90000001A06FA051120097C092F098C093F07D
:101CA00099C094F09AC095F0000E42EC0BF012002F
:101CB00097C092F098C093F099C094F09AC095F0B4
:101CC000020E42EC0BF012003AC035F03BC036F089
:101CD0003CC037F03DC038F0000EBBEC0BF01200FA
:101CE0009AEC0EF086EC0EF052EC0DF0C4EC0EF017
:101CF000C5EC0AF012000001A06F9EC09BF09FC0CF
:101D00009CF00001A0517FEC0BF01200800EC76E1A
:101D1000080EC66E000EC56E030EC86EC69A12007F
:101D2000C5BC95EF0EF098EF0EF0010E99EF0EF096
:101D3000000E1200D08E9F86A286A298F1909F9AE4
:101D40009F981200000183817C517C2507EC0FF0E5
:101D5000030E120000018381D8807C3507EC0FF060
:101D6000050E120000018393000E826F0E0E12000A
:101D7000000183912EEC0FF0040E120000018393FA
:101D8000000E826F0E0E1200300ED36E000E9B6E90
:101D9000120092C0ADF093C0AEF0120092C0ABF052
:101DA00093C0ACF0120092C0A7F093C0A8F012004C
:101DB00092C0A9F093C0AAF0120092C0A5F093C0FF
:101DC000A6F0120092C017F093C018F01200000E97
:101DD000F0EC0CF0120017EC0FF0090E120017ECEB
:101DE0000FF00A0E120014EC0FF0050E120034EC86
:101DF0000FF0000E120036EC0FF0010E120036EC60
:101E00000FF0020E120036EC0FF0010E1200356ECC
:101E100035C0C9FF1200AB98AB881200D9EC0DF0A9
:101E20001200F6EC0BF01200C59AC5881200C58AA4
:101E3000C58812009D861200C58012009D96120072
:101E4000C69A12009E961200F2901200A1981200FB
:101E50009E9612009E861200C9501200C58612007E
:101E6000050E1200010E1200C5841200C582120078
:021E700012005E
:020000040020DA
:08000000FFFFFFFFFFFFFFFF00
:020000040030CA
:0E000000FF081F1EFF8B85FF0FC00FE00F4093
:00000001FF
